{
  "_format": "hh-sol-artifact-1",
  "contractName": "NFTMarketplace",
  "sourceName": "contracts/NFTMarketplace.sol",
  "abi": [
    {
      "inputs": [],
      "stateMutability": "nonpayable",
      "type": "constructor"
    },
    {
      "anonymous": false,
      "inputs": [
        {
          "indexed": true,
          "internalType": "address",
          "name": "owner",
          "type": "address"
        },
        {
          "indexed": true,
          "internalType": "address",
          "name": "approved",
          "type": "address"
        },
        {
          "indexed": true,
          "internalType": "uint256",
          "name": "tokenId",
          "type": "uint256"
        }
      ],
      "name": "Approval",
      "type": "event"
    },
    {
      "anonymous": false,
      "inputs": [
        {
          "indexed": true,
          "internalType": "address",
          "name": "owner",
          "type": "address"
        },
        {
          "indexed": true,
          "internalType": "address",
          "name": "operator",
          "type": "address"
        },
        {
          "indexed": false,
          "internalType": "bool",
          "name": "approved",
          "type": "bool"
        }
      ],
      "name": "ApprovalForAll",
      "type": "event"
    },
    {
      "anonymous": false,
      "inputs": [
        {
          "indexed": false,
          "internalType": "uint256",
          "name": "_fromTokenId",
          "type": "uint256"
        },
        {
          "indexed": false,
          "internalType": "uint256",
          "name": "_toTokenId",
          "type": "uint256"
        }
      ],
      "name": "BatchMetadataUpdate",
      "type": "event"
    },
    {
      "anonymous": false,
      "inputs": [
        {
          "indexed": false,
          "internalType": "uint256",
          "name": "_tokenId",
          "type": "uint256"
        }
      ],
      "name": "MetadataUpdate",
      "type": "event"
    },
    {
      "anonymous": false,
      "inputs": [
        {
          "indexed": false,
          "internalType": "uint256",
          "name": "tokenId",
          "type": "uint256"
        },
        {
          "indexed": true,
          "internalType": "address",
          "name": "seller",
          "type": "address"
        },
        {
          "indexed": false,
          "internalType": "uint256",
          "name": "price",
          "type": "uint256"
        }
      ],
      "name": "NFTListedForResale",
      "type": "event"
    },
    {
      "anonymous": false,
      "inputs": [
        {
          "indexed": true,
          "internalType": "uint256",
          "name": "tokenId",
          "type": "uint256"
        },
        {
          "indexed": false,
          "internalType": "address",
          "name": "owner",
          "type": "address"
        },
        {
          "indexed": false,
          "internalType": "address",
          "name": "seller",
          "type": "address"
        },
        {
          "indexed": false,
          "internalType": "uint256",
          "name": "price",
          "type": "uint256"
        },
        {
          "indexed": false,
          "internalType": "bool",
          "name": "currentlyListed",
          "type": "bool"
        }
      ],
      "name": "TokenListedSuccess",
      "type": "event"
    },
    {
      "anonymous": false,
      "inputs": [
        {
          "indexed": true,
          "internalType": "address",
          "name": "from",
          "type": "address"
        },
        {
          "indexed": true,
          "internalType": "address",
          "name": "to",
          "type": "address"
        },
        {
          "indexed": true,
          "internalType": "uint256",
          "name": "tokenId",
          "type": "uint256"
        }
      ],
      "name": "Transfer",
      "type": "event"
    },
    {
      "inputs": [
        {
          "internalType": "address",
          "name": "to",
          "type": "address"
        },
        {
          "internalType": "uint256",
          "name": "tokenId",
          "type": "uint256"
        }
      ],
      "name": "approve",
      "outputs": [],
      "stateMutability": "nonpayable",
      "type": "function"
    },
    {
      "inputs": [
        {
          "internalType": "address",
          "name": "owner",
          "type": "address"
        }
      ],
      "name": "balanceOf",
      "outputs": [
        {
          "internalType": "uint256",
          "name": "",
          "type": "uint256"
        }
      ],
      "stateMutability": "view",
      "type": "function"
    },
    {
      "inputs": [
        {
          "internalType": "string",
          "name": "tokenURI",
          "type": "string"
        },
        {
          "internalType": "uint256",
          "name": "price",
          "type": "uint256"
        }
      ],
      "name": "createToken",
      "outputs": [
        {
          "internalType": "uint256",
          "name": "",
          "type": "uint256"
        }
      ],
      "stateMutability": "payable",
      "type": "function"
    },
    {
      "inputs": [
        {
          "internalType": "uint256",
          "name": "tokenId",
          "type": "uint256"
        }
      ],
      "name": "executeSale",
      "outputs": [],
      "stateMutability": "payable",
      "type": "function"
    },
    {
      "inputs": [],
      "name": "getAllNFTs",
      "outputs": [
        {
          "components": [
            {
              "internalType": "uint256",
              "name": "tokenId",
              "type": "uint256"
            },
            {
              "internalType": "address payable",
              "name": "owner",
              "type": "address"
            },
            {
              "internalType": "address payable",
              "name": "seller",
              "type": "address"
            },
            {
              "internalType": "uint256",
              "name": "price",
              "type": "uint256"
            },
            {
              "internalType": "bool",
              "name": "currentlyListed",
              "type": "bool"
            }
          ],
          "internalType": "struct NFTMarketplace.ListedToken[]",
          "name": "",
          "type": "tuple[]"
        }
      ],
      "stateMutability": "view",
      "type": "function"
    },
    {
      "inputs": [
        {
          "internalType": "uint256",
          "name": "tokenId",
          "type": "uint256"
        }
      ],
      "name": "getApproved",
      "outputs": [
        {
          "internalType": "address",
          "name": "",
          "type": "address"
        }
      ],
      "stateMutability": "view",
      "type": "function"
    },
    {
      "inputs": [],
      "name": "getCurrentToken",
      "outputs": [
        {
          "internalType": "uint256",
          "name": "",
          "type": "uint256"
        }
      ],
      "stateMutability": "view",
      "type": "function"
    },
    {
      "inputs": [],
      "name": "getLatestIdToListedToken",
      "outputs": [
        {
          "components": [
            {
              "internalType": "uint256",
              "name": "tokenId",
              "type": "uint256"
            },
            {
              "internalType": "address payable",
              "name": "owner",
              "type": "address"
            },
            {
              "internalType": "address payable",
              "name": "seller",
              "type": "address"
            },
            {
              "internalType": "uint256",
              "name": "price",
              "type": "uint256"
            },
            {
              "internalType": "bool",
              "name": "currentlyListed",
              "type": "bool"
            }
          ],
          "internalType": "struct NFTMarketplace.ListedToken",
          "name": "",
          "type": "tuple"
        }
      ],
      "stateMutability": "view",
      "type": "function"
    },
    {
      "inputs": [],
      "name": "getListPrice",
      "outputs": [
        {
          "internalType": "uint256",
          "name": "",
          "type": "uint256"
        }
      ],
      "stateMutability": "view",
      "type": "function"
    },
    {
      "inputs": [
        {
          "internalType": "uint256",
          "name": "tokenId",
          "type": "uint256"
        }
      ],
      "name": "getListedTokenForId",
      "outputs": [
        {
          "components": [
            {
              "internalType": "uint256",
              "name": "tokenId",
              "type": "uint256"
            },
            {
              "internalType": "address payable",
              "name": "owner",
              "type": "address"
            },
            {
              "internalType": "address payable",
              "name": "seller",
              "type": "address"
            },
            {
              "internalType": "uint256",
              "name": "price",
              "type": "uint256"
            },
            {
              "internalType": "bool",
              "name": "currentlyListed",
              "type": "bool"
            }
          ],
          "internalType": "struct NFTMarketplace.ListedToken",
          "name": "",
          "type": "tuple"
        }
      ],
      "stateMutability": "view",
      "type": "function"
    },
    {
      "inputs": [],
      "name": "getMyNFTs",
      "outputs": [
        {
          "components": [
            {
              "internalType": "uint256",
              "name": "tokenId",
              "type": "uint256"
            },
            {
              "internalType": "address payable",
              "name": "owner",
              "type": "address"
            },
            {
              "internalType": "address payable",
              "name": "seller",
              "type": "address"
            },
            {
              "internalType": "uint256",
              "name": "price",
              "type": "uint256"
            },
            {
              "internalType": "bool",
              "name": "currentlyListed",
              "type": "bool"
            }
          ],
          "internalType": "struct NFTMarketplace.ListedToken[]",
          "name": "",
          "type": "tuple[]"
        }
      ],
      "stateMutability": "view",
      "type": "function"
    },
    {
      "inputs": [
        {
          "internalType": "address",
          "name": "owner",
          "type": "address"
        },
        {
          "internalType": "address",
          "name": "operator",
          "type": "address"
        }
      ],
      "name": "isApprovedForAll",
      "outputs": [
        {
          "internalType": "bool",
          "name": "",
          "type": "bool"
        }
      ],
      "stateMutability": "view",
      "type": "function"
    },
    {
      "inputs": [],
      "name": "name",
      "outputs": [
        {
          "internalType": "string",
          "name": "",
          "type": "string"
        }
      ],
      "stateMutability": "view",
      "type": "function"
    },
    {
      "inputs": [
        {
          "internalType": "uint256",
          "name": "tokenId",
          "type": "uint256"
        }
      ],
      "name": "ownerOf",
      "outputs": [
        {
          "internalType": "address",
          "name": "",
          "type": "address"
        }
      ],
      "stateMutability": "view",
      "type": "function"
    },
    {
      "inputs": [
        {
          "internalType": "uint256",
          "name": "tokenId",
          "type": "uint256"
        },
        {
          "internalType": "uint256",
          "name": "resalePrice",
          "type": "uint256"
        }
      ],
      "name": "resaleNFT",
      "outputs": [],
      "stateMutability": "nonpayable",
      "type": "function"
    },
    {
      "inputs": [
        {
          "internalType": "address",
          "name": "from",
          "type": "address"
        },
        {
          "internalType": "address",
          "name": "to",
          "type": "address"
        },
        {
          "internalType": "uint256",
          "name": "tokenId",
          "type": "uint256"
        }
      ],
      "name": "safeTransferFrom",
      "outputs": [],
      "stateMutability": "nonpayable",
      "type": "function"
    },
    {
      "inputs": [
        {
          "internalType": "address",
          "name": "from",
          "type": "address"
        },
        {
          "internalType": "address",
          "name": "to",
          "type": "address"
        },
        {
          "internalType": "uint256",
          "name": "tokenId",
          "type": "uint256"
        },
        {
          "internalType": "bytes",
          "name": "data",
          "type": "bytes"
        }
      ],
      "name": "safeTransferFrom",
      "outputs": [],
      "stateMutability": "nonpayable",
      "type": "function"
    },
    {
      "inputs": [
        {
          "internalType": "address",
          "name": "operator",
          "type": "address"
        },
        {
          "internalType": "bool",
          "name": "approved",
          "type": "bool"
        }
      ],
      "name": "setApprovalForAll",
      "outputs": [],
      "stateMutability": "nonpayable",
      "type": "function"
    },
    {
      "inputs": [
        {
          "internalType": "bytes4",
          "name": "interfaceId",
          "type": "bytes4"
        }
      ],
      "name": "supportsInterface",
      "outputs": [
        {
          "internalType": "bool",
          "name": "",
          "type": "bool"
        }
      ],
      "stateMutability": "view",
      "type": "function"
    },
    {
      "inputs": [],
      "name": "symbol",
      "outputs": [
        {
          "internalType": "string",
          "name": "",
          "type": "string"
        }
      ],
      "stateMutability": "view",
      "type": "function"
    },
    {
      "inputs": [
        {
          "internalType": "uint256",
          "name": "tokenId",
          "type": "uint256"
        }
      ],
      "name": "tokenURI",
      "outputs": [
        {
          "internalType": "string",
          "name": "",
          "type": "string"
        }
      ],
      "stateMutability": "view",
      "type": "function"
    },
    {
      "inputs": [
        {
          "internalType": "address",
          "name": "from",
          "type": "address"
        },
        {
          "internalType": "address",
          "name": "to",
          "type": "address"
        },
        {
          "internalType": "uint256",
          "name": "tokenId",
          "type": "uint256"
        }
      ],
      "name": "transferFrom",
      "outputs": [],
      "stateMutability": "nonpayable",
      "type": "function"
    },
    {
      "inputs": [
        {
          "internalType": "uint256",
          "name": "_listPrice",
          "type": "uint256"
        }
      ],
      "name": "updateListPrice",
      "outputs": [],
      "stateMutability": "payable",
      "type": "function"
    }
  ],
  "bytecode": "0x6080604052662386f26fc10000600a553480156200001c57600080fd5b50604080518082018252600e81526d4e46544d61726b6574706c61636560901b6020808301918252835180850190945260048452634e46544d60e01b9084015281519192916200006f91600091620000a0565b50805162000085906001906020840190620000a0565b5050600980546001600160a01b031916331790555062000183565b828054620000ae9062000146565b90600052602060002090601f016020900481019282620000d257600085556200011d565b82601f10620000ed57805160ff19168380011785556200011d565b828001600101855582156200011d579182015b828111156200011d57825182559160200191906001019062000100565b506200012b9291506200012f565b5090565b5b808211156200012b576000815560010162000130565b600181811c908216806200015b57607f821691505b602082108114156200017d57634e487b7160e01b600052602260045260246000fd5b50919050565b61230180620001936000396000f3fe6080604052600436106101405760003560e01c806372b3b620116100b6578063c322579c1161006f578063c322579c1461037f578063c87b56dd14610392578063d1a88ae5146103b2578063e0391b09146103c7578063e985e9c5146103dc578063ef2d17461461042557600080fd5b806372b3b620146102d75780638e264590146102ea57806395d89b41146103175780639b1225c41461032c578063a22cb4651461033f578063b88d4fde1461035f57600080fd5b806342842e0e1161010857806342842e0e146102165780635a3e5e3d14610236578063629cb2e4146102565780636352211e1461027857806368f1945f1461029857806370a08231146102b757600080fd5b806301ffc9a71461014557806306fdde031461017a578063081812fc1461019c578063095ea7b3146101d457806323b872dd146101f6575b600080fd5b34801561015157600080fd5b50610165610160366004611efd565b61043a565b60405190151581526020015b60405180910390f35b34801561018657600080fd5b5061018f610465565b60405161017191906120ea565b3480156101a857600080fd5b506101bc6101b7366004611f8b565b6104f7565b6040516001600160a01b039091168152602001610171565b3480156101e057600080fd5b506101f46101ef366004611ed4565b61051e565b005b34801561020257600080fd5b506101f4610211366004611de6565b610639565b34801561022257600080fd5b506101f4610231366004611de6565b61066a565b34801561024257600080fd5b506101f4610251366004611fa3565b610685565b34801561026257600080fd5b5061026b61075d565b604051610171919061209c565b34801561028457600080fd5b506101bc610293366004611f8b565b6109a0565b3480156102a457600080fd5b50600a545b604051908152602001610171565b3480156102c357600080fd5b506102a96102d2366004611d9a565b610a00565b6102a96102e5366004611f35565b610a86565b3480156102f657600080fd5b5061030a610305366004611f8b565b610ac8565b60405161017191906121e1565b34801561032357600080fd5b5061018f610b32565b6101f461033a366004611f8b565b610b41565b34801561034b57600080fd5b506101f461035a366004611e9a565b610c98565b34801561036b57600080fd5b506101f461037a366004611e21565b610ca7565b6101f461038d366004611f8b565b610cd9565b34801561039e57600080fd5b5061018f6103ad366004611f8b565b610d44565b3480156103be57600080fd5b5061030a610e55565b3480156103d357600080fd5b5061026b610ecc565b3480156103e857600080fd5b506101656103f7366004611db4565b6001600160a01b03918216600090815260056020908152604080832093909416825291909152205460ff1690565b34801561043157600080fd5b506102a96110e5565b60006001600160e01b03198216632483248360e11b148061045f575061045f826110f5565b92915050565b60606000805461047490612233565b80601f01602080910402602001604051908101604052809291908181526020018280546104a090612233565b80156104ed5780601f106104c2576101008083540402835291602001916104ed565b820191906000526020600020905b8154815290600101906020018083116104d057829003601f168201915b5050505050905090565b600061050282611145565b506000908152600460205260409020546001600160a01b031690565b6000610529826109a0565b9050806001600160a01b0316836001600160a01b0316141561059c5760405162461bcd60e51b815260206004820152602160248201527f4552433732313a20617070726f76616c20746f2063757272656e74206f776e656044820152603960f91b60648201526084015b60405180910390fd5b336001600160a01b03821614806105b857506105b881336103f7565b61062a5760405162461bcd60e51b815260206004820152603d60248201527f4552433732313a20617070726f76652063616c6c6572206973206e6f7420746f60448201527f6b656e206f776e6572206f7220617070726f76656420666f7220616c6c0000006064820152608401610593565b61063483836111a7565b505050565b6106433382611215565b61065f5760405162461bcd60e51b8152600401610593906120fd565b610634838383611293565b61063483838360405180602001604052806000815250610ca7565b3361068f836109a0565b6001600160a01b0316146106ef5760405162461bcd60e51b815260206004820152602160248201527f596f7520617265206e6f7420746865206f776e6572206f662074686973204e466044820152601560fa1b6064820152608401610593565b6000828152600b6020526040902060038101829055600401805460ff1916600117905561071d333084611293565b604080518381526020810183905233917fe939453d4b0cc21950bee061aa69c3d302ca723707786d03a3df677d2e347b3191015b60405180910390a25050565b6060600061076a60075490565b905060008080805b848110156108025733600b600061078a8460016121ef565b81526020810191909152604001600020600101546001600160a01b031614806107dd575033600b60006107be8460016121ef565b81526020810191909152604001600020600201546001600160a01b0316145b156107f0576107ed6001856121ef565b93505b806107fa8161226e565b915050610772565b5060008367ffffffffffffffff81111561082c57634e487b7160e01b600052604160045260246000fd5b60405190808252806020026020018201604052801561086557816020015b610852611c41565b81526020019060019003908161084a5790505b50905060005b858110156109965733600b60006108838460016121ef565b81526020810191909152604001600020600101546001600160a01b031614806108d6575033600b60006108b78460016121ef565b81526020810191909152604001600020600201546001600160a01b0316145b15610984576108e68160016121ef565b6000818152600b6020908152604091829020825160a0810184528154815260018201546001600160a01b039081169382019390935260028201549092169282019290925260038201546060820152600482015460ff16151560808201528451929550909184908790811061096a57634e487b7160e01b600052603260045260246000fd5b60209081029190910101526109806001866121ef565b9450505b8061098e8161226e565b91505061086b565b5095945050505050565b6000818152600260205260408120546001600160a01b03168061045f5760405162461bcd60e51b8152602060048201526018602482015277115490cdcc8c4e881a5b9d985b1a59081d1bdad95b88125160421b6044820152606401610593565b60006001600160a01b038216610a6a5760405162461bcd60e51b815260206004820152602960248201527f4552433732313a2061646472657373207a65726f206973206e6f7420612076616044820152683634b21037bbb732b960b91b6064820152608401610593565b506001600160a01b031660009081526003602052604090205490565b6000610a96600780546001019055565b6000610aa160075490565b9050610aad33826113f7565b610ab78185611411565b610ac181846114e3565b9392505050565b610ad0611c41565b506000908152600b6020908152604091829020825160a0810184528154815260018201546001600160a01b03908116938201939093526002820154909216928201929092526003820154606082015260049091015460ff161515608082015290565b60606001805461047490612233565b6000818152600b6020526040902060038101546002909101546001600160a01b0316348214610bda576040805162461bcd60e51b81526020600482015260248101919091527f506c65617365207375626d6974207468652061736b696e67207072696365206960448201527f6e206f7264657220746f20636f6d706c657465207468652070757263686173656064820152608401610593565b6000838152600b6020526040902060048101805460ff1916905560020180546001600160a01b03191633179055610c15600880546001019055565b610c20303385611293565b600954600a546040516001600160a01b039092169181156108fc0291906000818181858888f19350505050158015610c5c573d6000803e3d6000fd5b506040516001600160a01b038216903480156108fc02916000818181858888f19350505050158015610c92573d6000803e3d6000fd5b50505050565b610ca333838361167e565b5050565b610cb13383611215565b610ccd5760405162461bcd60e51b8152600401610593906120fd565b610c928484848461174d565b6009546001600160a01b03163314610d3f5760405162461bcd60e51b815260206004820152602360248201527f4f6e6c79206f776e65722063616e20757064617465206c697374696e6720707260448201526269636560e81b6064820152608401610593565b600a55565b6060610d4f82611145565b60008281526006602052604081208054610d6890612233565b80601f0160208091040260200160405190810160405280929190818152602001828054610d9490612233565b8015610de15780601f10610db657610100808354040283529160200191610de1565b820191906000526020600020905b815481529060010190602001808311610dc457829003601f168201915b505050505090506000610dff60408051602081019091526000815290565b9050805160001415610e12575092915050565b815115610e44578082604051602001610e2c929190612030565b60405160208183030381529060405292505050919050565b610e4d84611780565b949350505050565b610e5d611c41565b6000610e6860075490565b6000908152600b6020908152604091829020825160a0810184528154815260018201546001600160a01b03908116938201939093526002820154909216928201929092526003820154606082015260049091015460ff161515608082015292915050565b60606000610ed960075490565b905060008167ffffffffffffffff811115610f0457634e487b7160e01b600052604160045260246000fd5b604051908082528060200260200182016040528015610f3d57816020015b610f2a611c41565b815260200190600190039081610f225790505b509050600080805b8481101561100e57610f588160016121ef565b6000818152600b6020526040902060048101549193509060ff1615610ffb576040805160a0810182528254815260018301546001600160a01b0390811660208301526002840154169181019190915260038201546060820152600482015460ff16151560808201528551869086908110610fe257634e487b7160e01b600052603260045260246000fd5b6020908102919091010152610ff86001856121ef565b93505b50806110068161226e565b915050610f45565b5060008267ffffffffffffffff81111561103857634e487b7160e01b600052604160045260246000fd5b60405190808252806020026020018201604052801561107157816020015b61105e611c41565b8152602001906001900390816110565790505b50905060005b838110156109965784818151811061109f57634e487b7160e01b600052603260045260246000fd5b60200260200101518282815181106110c757634e487b7160e01b600052603260045260246000fd5b602002602001018190525080806110dd9061226e565b915050611077565b60006110f060075490565b905090565b60006001600160e01b031982166380ac58cd60e01b148061112657506001600160e01b03198216635b5e139f60e01b145b8061045f57506301ffc9a760e01b6001600160e01b031983161461045f565b6000818152600260205260409020546001600160a01b03166111a45760405162461bcd60e51b8152602060048201526018602482015277115490cdcc8c4e881a5b9d985b1a59081d1bdad95b88125160421b6044820152606401610593565b50565b600081815260046020526040902080546001600160a01b0319166001600160a01b03841690811790915581906111dc826109a0565b6001600160a01b03167f8c5be1e5ebec7d5bd14f71427d1e84f3dd0314c0f7b2291e5b200ac8c7c3b92560405160405180910390a45050565b600080611221836109a0565b9050806001600160a01b0316846001600160a01b0316148061126857506001600160a01b0380821660009081526005602090815260408083209388168352929052205460ff165b80610e4d5750836001600160a01b0316611281846104f7565b6001600160a01b031614949350505050565b826001600160a01b03166112a6826109a0565b6001600160a01b0316146112cc5760405162461bcd60e51b81526004016105939061219c565b6001600160a01b03821661132e5760405162461bcd60e51b8152602060048201526024808201527f4552433732313a207472616e7366657220746f20746865207a65726f206164646044820152637265737360e01b6064820152608401610593565b826001600160a01b0316611341826109a0565b6001600160a01b0316146113675760405162461bcd60e51b81526004016105939061219c565b600081815260046020908152604080832080546001600160a01b03199081169091556001600160a01b0387811680865260038552838620805460001901905590871680865283862080546001019055868652600290945282852080549092168417909155905184937fddf252ad1be2c89b69c2b068fc378daa952ba7f163c4a11628f55a4df523b3ef91a4505050565b610ca38282604051806020016040528060008152506117f3565b6000828152600260205260409020546001600160a01b031661148c5760405162461bcd60e51b815260206004820152602e60248201527f45524337323155524953746f726167653a2055524920736574206f66206e6f6e60448201526d32bc34b9ba32b73a103a37b5b2b760911b6064820152608401610593565b600082815260066020908152604090912082516114ab92840190611c6f565b506040518281527ff8e1a15aba9398e019f0b49df1a4fde98ee17ae345cb5f6b5e2c27f5033e8ce79060200160405180910390a15050565b600a5434146115405760405162461bcd60e51b815260206004820152602360248201527f486f706566756c6c792073656e64696e672074686520636f727265637420707260448201526269636560e81b6064820152608401610593565b6000811161159b5760405162461bcd60e51b815260206004820152602260248201527f4d616b652073757265207468652070726963652069736e2774206e6567617469604482015261766560f01b6064820152608401610593565b6040805160a081018252838152306020808301828152338486018181526060860188815260016080880181815260008c8152600b9097529890952096518755925193860180546001600160a01b039586166001600160a01b03199182161790915590516002870180549190951691161790925551600384015592516004909201805492151560ff1990931692909217909155611638919084611293565b604080513081523360208201529081018290526001606082015282907f9339409317fd01fabff48b703019016f49159bacc801ae872d2ca637d226e4c090608001610751565b816001600160a01b0316836001600160a01b031614156116e05760405162461bcd60e51b815260206004820152601960248201527f4552433732313a20617070726f766520746f2063616c6c6572000000000000006044820152606401610593565b6001600160a01b03838116600081815260056020908152604080832094871680845294825291829020805460ff191686151590811790915591519182527f17307eab39ab6107e8899845ad3d59bd9653f200f220920489ca2b5937696c31910160405180910390a3505050565b611758848484611293565b61176484848484611826565b610c925760405162461bcd60e51b81526004016105939061214a565b606061178b82611145565b60006117a260408051602081019091526000815290565b905060008151116117c25760405180602001604052806000815250610ac1565b806117cc84611933565b6040516020016117dd929190612030565b6040516020818303038152906040529392505050565b6117fd83836119de565b61180a6000848484611826565b6106345760405162461bcd60e51b81526004016105939061214a565b60006001600160a01b0384163b1561192857604051630a85bd0160e11b81526001600160a01b0385169063150b7a029061186a90339089908890889060040161205f565b602060405180830381600087803b15801561188457600080fd5b505af19250505080156118b4575060408051601f3d908101601f191682019092526118b191810190611f19565b60015b61190e573d8080156118e2576040519150601f19603f3d011682016040523d82523d6000602084013e6118e7565b606091505b5080516119065760405162461bcd60e51b81526004016105939061214a565b805181602001fd5b6001600160e01b031916630a85bd0160e11b149050610e4d565b506001949350505050565b6060600061194083611b69565b600101905060008167ffffffffffffffff81111561196e57634e487b7160e01b600052604160045260246000fd5b6040519080825280601f01601f191660200182016040528015611998576020820181803683370190505b5090508181016020015b600019016f181899199a1a9b1b9c1cb0b131b232b360811b600a86061a8153600a85049450846119d1576119d6565b6119a2565b509392505050565b6001600160a01b038216611a345760405162461bcd60e51b815260206004820181905260248201527f4552433732313a206d696e7420746f20746865207a65726f20616464726573736044820152606401610593565b6000818152600260205260409020546001600160a01b031615611a995760405162461bcd60e51b815260206004820152601c60248201527f4552433732313a20746f6b656e20616c7265616479206d696e746564000000006044820152606401610593565b6000818152600260205260409020546001600160a01b031615611afe5760405162461bcd60e51b815260206004820152601c60248201527f4552433732313a20746f6b656e20616c7265616479206d696e746564000000006044820152606401610593565b6001600160a01b038216600081815260036020908152604080832080546001019055848352600290915280822080546001600160a01b0319168417905551839291907fddf252ad1be2c89b69c2b068fc378daa952ba7f163c4a11628f55a4df523b3ef908290a45050565b60008072184f03e93ff9f4daa797ed6e38ed64bf6a1f0160401b8310611ba85772184f03e93ff9f4daa797ed6e38ed64bf6a1f0160401b830492506040015b6d04ee2d6d415b85acef81000000008310611bd4576d04ee2d6d415b85acef8100000000830492506020015b662386f26fc100008310611bf257662386f26fc10000830492506010015b6305f5e1008310611c0a576305f5e100830492506008015b6127108310611c1e57612710830492506004015b60648310611c30576064830492506002015b600a831061045f5760010192915050565b6040805160a08101825260008082526020820181905291810182905260608101829052608081019190915290565b828054611c7b90612233565b90600052602060002090601f016020900481019282611c9d5760008555611ce3565b82601f10611cb657805160ff1916838001178555611ce3565b82800160010185558215611ce3579182015b82811115611ce3578251825591602001919060010190611cc8565b50611cef929150611cf3565b5090565b5b80821115611cef5760008155600101611cf4565b600067ffffffffffffffff80841115611d2357611d2361229f565b604051601f8501601f19908116603f01168101908282118183101715611d4b57611d4b61229f565b81604052809350858152868686011115611d6457600080fd5b858560208301376000602087830101525050509392505050565b80356001600160a01b0381168114611d9557600080fd5b919050565b600060208284031215611dab578081fd5b610ac182611d7e565b60008060408385031215611dc6578081fd5b611dcf83611d7e565b9150611ddd60208401611d7e565b90509250929050565b600080600060608486031215611dfa578081fd5b611e0384611d7e565b9250611e1160208501611d7e565b9150604084013590509250925092565b60008060008060808587031215611e36578081fd5b611e3f85611d7e565b9350611e4d60208601611d7e565b925060408501359150606085013567ffffffffffffffff811115611e6f578182fd5b8501601f81018713611e7f578182fd5b611e8e87823560208401611d08565b91505092959194509250565b60008060408385031215611eac578182fd5b611eb583611d7e565b915060208301358015158114611ec9578182fd5b809150509250929050565b60008060408385031215611ee6578182fd5b611eef83611d7e565b946020939093013593505050565b600060208284031215611f0e578081fd5b8135610ac1816122b5565b600060208284031215611f2a578081fd5b8151610ac1816122b5565b60008060408385031215611f47578182fd5b823567ffffffffffffffff811115611f5d578283fd5b8301601f81018513611f6d578283fd5b611f7c85823560208401611d08565b95602094909401359450505050565b600060208284031215611f9c578081fd5b5035919050565b60008060408385031215611fb5578182fd5b50508035926020909101359150565b60008151808452611fdc816020860160208601612207565b601f01601f19169290920160200192915050565b805182526020808201516001600160a01b039081169184019190915260408083015190911690830152606080820151908301526080908101511515910152565b60008351612042818460208801612207565b835190830190612056818360208801612207565b01949350505050565b6001600160a01b038581168252841660208201526040810183905260806060820181905260009061209290830184611fc4565b9695505050505050565b6020808252825182820181905260009190848201906040850190845b818110156120de576120cb838551611ff0565b9284019260a092909201916001016120b8565b50909695505050505050565b602081526000610ac16020830184611fc4565b6020808252602d908201527f4552433732313a2063616c6c6572206973206e6f7420746f6b656e206f776e6560408201526c1c881bdc88185c1c1c9bdd9959609a1b606082015260800190565b60208082526032908201527f4552433732313a207472616e7366657220746f206e6f6e20455243373231526560408201527131b2b4bb32b91034b6b83632b6b2b73a32b960711b606082015260800190565b60208082526025908201527f4552433732313a207472616e736665722066726f6d20696e636f72726563742060408201526437bbb732b960d91b606082015260800190565b60a0810161045f8284611ff0565b6000821982111561220257612202612289565b500190565b60005b8381101561222257818101518382015260200161220a565b83811115610c925750506000910152565b600181811c9082168061224757607f821691505b6020821081141561226857634e487b7160e01b600052602260045260246000fd5b50919050565b600060001982141561228257612282612289565b5060010190565b634e487b7160e01b600052601160045260246000fd5b634e487b7160e01b600052604160045260246000fd5b6001600160e01b0319811681146111a457600080fdfea26469706673582212205ee8b3db4e8244b2d9e43d121a5866508f7130c1a653d0b33a54cf116c76508a64736f6c63430008040033",
  "linkReferences": {},
  "deployedLinkReferences": {}
}